{
  "_format": "hh-sol-artifact-1",
  "contractName": "NFTMarketplace",
  "sourceName": "contracts/NFTMarketplace.sol",
  "abi": [
    {
      "inputs": [],
      "stateMutability": "nonpayable",
      "type": "constructor"
    },
    {
      "anonymous": false,
      "inputs": [
        {
          "indexed": true,
          "internalType": "uint256",
          "name": "id",
          "type": "uint256"
        },
        {
          "indexed": true,
          "internalType": "address",
          "name": "nftContract",
          "type": "address"
        },
        {
          "indexed": true,
          "internalType": "uint256",
          "name": "tokenId",
          "type": "uint256"
        },
        {
          "indexed": false,
          "internalType": "address",
          "name": "seller",
          "type": "address"
        },
        {
          "indexed": false,
          "internalType": "address",
          "name": "buyer",
          "type": "address"
        },
        {
          "indexed": false,
          "internalType": "uint256",
          "name": "price",
          "type": "uint256"
        },
        {
          "indexed": false,
          "internalType": "enum NFTMarketplace.State",
          "name": "state",
          "type": "uint8"
        }
      ],
      "name": "MarketItemCreated",
      "type": "event"
    },
    {
      "anonymous": false,
      "inputs": [
        {
          "indexed": true,
          "internalType": "uint256",
          "name": "id",
          "type": "uint256"
        },
        {
          "indexed": true,
          "internalType": "address",
          "name": "nftContract",
          "type": "address"
        },
        {
          "indexed": true,
          "internalType": "uint256",
          "name": "tokenId",
          "type": "uint256"
        },
        {
          "indexed": false,
          "internalType": "address",
          "name": "seller",
          "type": "address"
        },
        {
          "indexed": false,
          "internalType": "address",
          "name": "buyer",
          "type": "address"
        },
        {
          "indexed": false,
          "internalType": "uint256",
          "name": "price",
          "type": "uint256"
        },
        {
          "indexed": false,
          "internalType": "enum NFTMarketplace.State",
          "name": "state",
          "type": "uint8"
        }
      ],
      "name": "MarketItemSold",
      "type": "event"
    },
    {
      "inputs": [
        {
          "internalType": "address",
          "name": "nftContract",
          "type": "address"
        },
        {
          "internalType": "uint256",
          "name": "tokenId",
          "type": "uint256"
        },
        {
          "internalType": "uint256",
          "name": "price",
          "type": "uint256"
        }
      ],
      "name": "createMarketItem",
      "outputs": [],
      "stateMutability": "payable",
      "type": "function"
    },
    {
      "inputs": [
        {
          "internalType": "address",
          "name": "nftContract",
          "type": "address"
        },
        {
          "internalType": "uint256",
          "name": "id",
          "type": "uint256"
        }
      ],
      "name": "createMarketSale",
      "outputs": [],
      "stateMutability": "payable",
      "type": "function"
    },
    {
      "inputs": [
        {
          "internalType": "uint256",
          "name": "itemId",
          "type": "uint256"
        }
      ],
      "name": "deleteMarketItem",
      "outputs": [],
      "stateMutability": "nonpayable",
      "type": "function"
    },
    {
      "inputs": [],
      "name": "fetchActiveItems",
      "outputs": [
        {
          "components": [
            {
              "internalType": "uint256",
              "name": "id",
              "type": "uint256"
            },
            {
              "internalType": "address",
              "name": "nftContract",
              "type": "address"
            },
            {
              "internalType": "uint256",
              "name": "tokenId",
              "type": "uint256"
            },
            {
              "internalType": "address payable",
              "name": "seller",
              "type": "address"
            },
            {
              "internalType": "address payable",
              "name": "buyer",
              "type": "address"
            },
            {
              "internalType": "uint256",
              "name": "price",
              "type": "uint256"
            },
            {
              "internalType": "enum NFTMarketplace.State",
              "name": "state",
              "type": "uint8"
            }
          ],
          "internalType": "struct NFTMarketplace.MarketItem[]",
          "name": "",
          "type": "tuple[]"
        }
      ],
      "stateMutability": "view",
      "type": "function"
    },
    {
      "inputs": [],
      "name": "fetchMyCreatedItems",
      "outputs": [
        {
          "components": [
            {
              "internalType": "uint256",
              "name": "id",
              "type": "uint256"
            },
            {
              "internalType": "address",
              "name": "nftContract",
              "type": "address"
            },
            {
              "internalType": "uint256",
              "name": "tokenId",
              "type": "uint256"
            },
            {
              "internalType": "address payable",
              "name": "seller",
              "type": "address"
            },
            {
              "internalType": "address payable",
              "name": "buyer",
              "type": "address"
            },
            {
              "internalType": "uint256",
              "name": "price",
              "type": "uint256"
            },
            {
              "internalType": "enum NFTMarketplace.State",
              "name": "state",
              "type": "uint8"
            }
          ],
          "internalType": "struct NFTMarketplace.MarketItem[]",
          "name": "",
          "type": "tuple[]"
        }
      ],
      "stateMutability": "view",
      "type": "function"
    },
    {
      "inputs": [],
      "name": "fetchMyPurchasedItems",
      "outputs": [
        {
          "components": [
            {
              "internalType": "uint256",
              "name": "id",
              "type": "uint256"
            },
            {
              "internalType": "address",
              "name": "nftContract",
              "type": "address"
            },
            {
              "internalType": "uint256",
              "name": "tokenId",
              "type": "uint256"
            },
            {
              "internalType": "address payable",
              "name": "seller",
              "type": "address"
            },
            {
              "internalType": "address payable",
              "name": "buyer",
              "type": "address"
            },
            {
              "internalType": "uint256",
              "name": "price",
              "type": "uint256"
            },
            {
              "internalType": "enum NFTMarketplace.State",
              "name": "state",
              "type": "uint8"
            }
          ],
          "internalType": "struct NFTMarketplace.MarketItem[]",
          "name": "",
          "type": "tuple[]"
        }
      ],
      "stateMutability": "view",
      "type": "function"
    },
    {
      "inputs": [],
      "name": "getListingFee",
      "outputs": [
        {
          "internalType": "uint256",
          "name": "",
          "type": "uint256"
        }
      ],
      "stateMutability": "view",
      "type": "function"
    },
    {
      "inputs": [],
      "name": "listingFee",
      "outputs": [
        {
          "internalType": "uint256",
          "name": "",
          "type": "uint256"
        }
      ],
      "stateMutability": "view",
      "type": "function"
    },
    {
      "inputs": [],
      "name": "marketowner",
      "outputs": [
        {
          "internalType": "address payable",
          "name": "",
          "type": "address"
        }
      ],
      "stateMutability": "view",
      "type": "function"
    }
  ],
  "bytecode": "0x60806040526658d15e1762800060045534801561001b57600080fd5b50600160008190555033600360006101000a81548173ffffffffffffffffffffffffffffffffffffffff021916908373ffffffffffffffffffffffffffffffffffffffff160217905550612193806100746000396000f3fe6080604052600436106100865760003560e01c8063a9c0714511610059578063a9c0714514610128578063ab76ce1614610151578063b8fe6abe1461017c578063c23b139e146101a7578063ef8da9da146101c357610086565b8063332b386b1461008b57806358eb2df5146100b65780635e385b92146100d25780636a1b7ecc146100fd575b600080fd5b34801561009757600080fd5b506100a06101ee565b6040516100ad9190611983565b60405180910390f35b6100d060048036038101906100cb9190611a02565b6101ff565b005b3480156100de57600080fd5b506100e76105fb565b6040516100f49190611a64565b60405180910390f35b34801561010957600080fd5b50610112610621565b60405161011f9190611a8e565b60405180910390f35b34801561013457600080fd5b5061014f600480360381019061014a9190611aa9565b610627565b005b34801561015d57600080fd5b50610166610a5d565b6040516101739190611983565b60405180910390f35b34801561018857600080fd5b50610191610a6e565b60405161019e9190611a8e565b60405180910390f35b6101c160048036038101906101bc9190611ad6565b610a78565b005b3480156101cf57600080fd5b506101d8610e85565b6040516101e59190611983565b60405180910390f35b60606101fa6000610e96565b905090565b60026000541415610245576040517f08c379a000000000000000000000000000000000000000000000000000000000815260040161023c90611b73565b60405180910390fd5b600260008190555060008111610290576040517f08c379a000000000000000000000000000000000000000000000000000000000815260040161028790611bdf565b60405180910390fd5b60045434146102d4576040517f08c379a00000000000000000000000000000000000000000000000000000000081526004016102cb90611c4b565b60405180910390fd5b6102de6001611413565b60006102ea6001611429565b90506040518060e001604052808281526020018573ffffffffffffffffffffffffffffffffffffffff1681526020018481526020013373ffffffffffffffffffffffffffffffffffffffff168152602001600073ffffffffffffffffffffffffffffffffffffffff16815260200183815260200160006002811115610372576103716117fb565b5b815250600560008381526020019081526020016000206000820151816000015560208201518160010160006101000a81548173ffffffffffffffffffffffffffffffffffffffff021916908373ffffffffffffffffffffffffffffffffffffffff1602179055506040820151816002015560608201518160030160006101000a81548173ffffffffffffffffffffffffffffffffffffffff021916908373ffffffffffffffffffffffffffffffffffffffff16021790555060808201518160040160006101000a81548173ffffffffffffffffffffffffffffffffffffffff021916908373ffffffffffffffffffffffffffffffffffffffff16021790555060a0820151816005015560c08201518160060160006101000a81548160ff021916908360028111156104a6576104a56117fb565b5b02179055509050503073ffffffffffffffffffffffffffffffffffffffff168473ffffffffffffffffffffffffffffffffffffffff1663081812fc856040518263ffffffff1660e01b81526004016104fe9190611a8e565b602060405180830381865afa15801561051b573d6000803e3d6000fd5b505050506040513d601f19601f8201168201806040525081019061053f9190611c80565b73ffffffffffffffffffffffffffffffffffffffff1614610595576040517f08c379a000000000000000000000000000000000000000000000000000000000815260040161058c90611cf9565b60405180910390fd5b828473ffffffffffffffffffffffffffffffffffffffff16827fb0a8dcfc08f1150d20def3c46440be585f61cce1bdbb0fdf16bc597f471c6e703360008760006040516105e59493929190611d37565b60405180910390a4506001600081905550505050565b600360009054906101000a900473ffffffffffffffffffffffffffffffffffffffff1681565b60045481565b6002600054141561066d576040517f08c379a000000000000000000000000000000000000000000000000000000000815260040161066490611b73565b60405180910390fd5b600260008190555061067f6001611429565b8111156106c1576040517f08c379a00000000000000000000000000000000000000000000000000000000081526004016106b890611dc8565b60405180910390fd5b600060028111156106d5576106d46117fb565b5b6005600083815260200190815260200160002060060160009054906101000a900460ff16600281111561070b5761070a6117fb565b5b1461074b576040517f08c379a000000000000000000000000000000000000000000000000000000000815260040161074290611e34565b60405180910390fd5b60006005600083815260200190815260200160002090503373ffffffffffffffffffffffffffffffffffffffff168160010160009054906101000a900473ffffffffffffffffffffffffffffffffffffffff1673ffffffffffffffffffffffffffffffffffffffff16636352211e83600201546040518263ffffffff1660e01b81526004016107da9190611a8e565b602060405180830381865afa1580156107f7573d6000803e3d6000fd5b505050506040513d601f19601f8201168201806040525081019061081b9190611c80565b73ffffffffffffffffffffffffffffffffffffffff1614610871576040517f08c379a000000000000000000000000000000000000000000000000000000000815260040161086890611ea0565b60405180910390fd5b3073ffffffffffffffffffffffffffffffffffffffff168160010160009054906101000a900473ffffffffffffffffffffffffffffffffffffffff1673ffffffffffffffffffffffffffffffffffffffff1663081812fc83600201546040518263ffffffff1660e01b81526004016108e99190611a8e565b602060405180830381865afa158015610906573d6000803e3d6000fd5b505050506040513d601f19601f8201168201806040525081019061092a9190611c80565b73ffffffffffffffffffffffffffffffffffffffff1614610980576040517f08c379a000000000000000000000000000000000000000000000000000000000815260040161097790611cf9565b60405180910390fd5b60028160060160006101000a81548160ff021916908360028111156109a8576109a76117fb565b5b021790555080600201548160010160009054906101000a900473ffffffffffffffffffffffffffffffffffffffff1673ffffffffffffffffffffffffffffffffffffffff16837f064a9702da2c4a0a9af4cabda06e4715203ed7b0b3bb67eca6d3168e1c519bff8460030160009054906101000a900473ffffffffffffffffffffffffffffffffffffffff166000806002604051610a499493929190611f5a565b60405180910390a450600160008190555050565b6060610a696001610e96565b905090565b6000600454905090565b60026000541415610abe576040517f08c379a0000000000000000000000000000000000000000000000000000000008152600401610ab590611b73565b60405180910390fd5b60026000819055506000600560008381526020019081526020016000209050600081600501549050600082600201549050813414610b31576040517f08c379a0000000000000000000000000000000000000000000000000000000008152600401610b2890611feb565b60405180910390fd5b3073ffffffffffffffffffffffffffffffffffffffff168573ffffffffffffffffffffffffffffffffffffffff1663081812fc836040518263ffffffff1660e01b8152600401610b819190611a8e565b602060405180830381865afa158015610b9e573d6000803e3d6000fd5b505050506040513d601f19601f82011682018060405250810190610bc29190611c80565b73ffffffffffffffffffffffffffffffffffffffff1614610c18576040517f08c379a0000000000000000000000000000000000000000000000000000000008152600401610c0f90611cf9565b60405180910390fd5b338360040160006101000a81548173ffffffffffffffffffffffffffffffffffffffff021916908373ffffffffffffffffffffffffffffffffffffffff16021790555060018360060160006101000a81548160ff02191690836002811115610c8357610c826117fb565b5b0217905550610c926002611413565b8473ffffffffffffffffffffffffffffffffffffffff166323b872dd8460030160009054906101000a900473ffffffffffffffffffffffffffffffffffffffff1633846040518463ffffffff1660e01b8152600401610cf39392919061200b565b600060405180830381600087803b158015610d0d57600080fd5b505af1158015610d21573d6000803e3d6000fd5b50505050600360009054906101000a900473ffffffffffffffffffffffffffffffffffffffff1673ffffffffffffffffffffffffffffffffffffffff166108fc6004549081150290604051600060405180830381858888f19350505050158015610d8f573d6000803e3d6000fd5b508260030160009054906101000a900473ffffffffffffffffffffffffffffffffffffffff1673ffffffffffffffffffffffffffffffffffffffff166108fc349081150290604051600060405180830381858888f19350505050158015610dfa573d6000803e3d6000fd5b50808573ffffffffffffffffffffffffffffffffffffffff16857f064a9702da2c4a0a9af4cabda06e4715203ed7b0b3bb67eca6d3168e1c519bff8660030160009054906101000a900473ffffffffffffffffffffffffffffffffffffffff1633876001604051610e6e9493929190612042565b60405180910390a450505060016000819055505050565b6060610e916002610e96565b905090565b60606000610ea46001611429565b9050600080600190505b82811161105e57611037600560008381526020019081526020016000206040518060e0016040529081600082015481526020016001820160009054906101000a900473ffffffffffffffffffffffffffffffffffffffff1673ffffffffffffffffffffffffffffffffffffffff1673ffffffffffffffffffffffffffffffffffffffff168152602001600282015481526020016003820160009054906101000a900473ffffffffffffffffffffffffffffffffffffffff1673ffffffffffffffffffffffffffffffffffffffff1673ffffffffffffffffffffffffffffffffffffffff1681526020016004820160009054906101000a900473ffffffffffffffffffffffffffffffffffffffff1673ffffffffffffffffffffffffffffffffffffffff1673ffffffffffffffffffffffffffffffffffffffff168152602001600582015481526020016006820160009054906101000a900460ff16600281111561101b5761101a6117fb565b5b600281111561102d5761102c6117fb565b5b8152505086611437565b1561104b578180611047906120b6565b9250505b8080611056906120b6565b915050610eae565b506000808267ffffffffffffffff81111561107c5761107b6120ff565b5b6040519080825280602002602001820160405280156110b557816020015b6110a26116c3565b81526020019060019003908161109a5790505b5090506000600190505b84811161140657611248600560008381526020019081526020016000206040518060e0016040529081600082015481526020016001820160009054906101000a900473ffffffffffffffffffffffffffffffffffffffff1673ffffffffffffffffffffffffffffffffffffffff1673ffffffffffffffffffffffffffffffffffffffff168152602001600282015481526020016003820160009054906101000a900473ffffffffffffffffffffffffffffffffffffffff1673ffffffffffffffffffffffffffffffffffffffff1673ffffffffffffffffffffffffffffffffffffffff1681526020016004820160009054906101000a900473ffffffffffffffffffffffffffffffffffffffff1673ffffffffffffffffffffffffffffffffffffffff1673ffffffffffffffffffffffffffffffffffffffff168152602001600582015481526020016006820160009054906101000a900460ff16600281111561122c5761122b6117fb565b5b600281111561123e5761123d6117fb565b5b8152505088611437565b156113f357600560008281526020019081526020016000206040518060e0016040529081600082015481526020016001820160009054906101000a900473ffffffffffffffffffffffffffffffffffffffff1673ffffffffffffffffffffffffffffffffffffffff1673ffffffffffffffffffffffffffffffffffffffff168152602001600282015481526020016003820160009054906101000a900473ffffffffffffffffffffffffffffffffffffffff1673ffffffffffffffffffffffffffffffffffffffff1673ffffffffffffffffffffffffffffffffffffffff1681526020016004820160009054906101000a900473ffffffffffffffffffffffffffffffffffffffff1673ffffffffffffffffffffffffffffffffffffffff1673ffffffffffffffffffffffffffffffffffffffff168152602001600582015481526020016006820160009054906101000a900460ff1660028111156113b0576113af6117fb565b5b60028111156113c2576113c16117fb565b5b815250508284815181106113d9576113d861212e565b5b602002602001018190525082806113ef906120b6565b9350505b80806113fe906120b6565b9150506110bf565b5080945050505050919050565b6001816000016000828254019250508190555050565b600081600001549050919050565b600060028081111561144c5761144b6117fb565b5b82600281111561145f5761145e6117fb565b5b14156114e1573373ffffffffffffffffffffffffffffffffffffffff16836060015173ffffffffffffffffffffffffffffffffffffffff161480156114cc57506002808111156114b2576114b16117fb565b5b8360c0015160028111156114c9576114c86117fb565b5b14155b6114d75760006114da565b60015b90506116bd565b600160028111156114f5576114f46117fb565b5b826002811115611508576115076117fb565b5b1415611556573373ffffffffffffffffffffffffffffffffffffffff16836080015173ffffffffffffffffffffffffffffffffffffffff161461154c57600061154f565b60015b90506116bd565b6000600281111561156a576115696117fb565b5b82600281111561157d5761157c6117fb565b5b14156116b857600073ffffffffffffffffffffffffffffffffffffffff16836080015173ffffffffffffffffffffffffffffffffffffffff161480156115eb5750600060028111156115d2576115d16117fb565b5b8360c0015160028111156115e9576115e86117fb565b5b145b80156116a357503073ffffffffffffffffffffffffffffffffffffffff16836020015173ffffffffffffffffffffffffffffffffffffffff1663081812fc85604001516040518263ffffffff1660e01b815260040161164a9190611a8e565b602060405180830381865afa158015611667573d6000803e3d6000fd5b505050506040513d601f19601f8201168201806040525081019061168b9190611c80565b73ffffffffffffffffffffffffffffffffffffffff16145b6116ae5760006116b1565b60015b90506116bd565b600090505b92915050565b6040518060e0016040528060008152602001600073ffffffffffffffffffffffffffffffffffffffff16815260200160008152602001600073ffffffffffffffffffffffffffffffffffffffff168152602001600073ffffffffffffffffffffffffffffffffffffffff168152602001600081526020016000600281111561174e5761174d6117fb565b5b81525090565b600081519050919050565b600082825260208201905092915050565b6000819050602082019050919050565b6000819050919050565b61179381611780565b82525050565b600073ffffffffffffffffffffffffffffffffffffffff82169050919050565b60006117c482611799565b9050919050565b6117d4816117b9565b82525050565b60006117e582611799565b9050919050565b6117f5816117da565b82525050565b7f4e487b7100000000000000000000000000000000000000000000000000000000600052602160045260246000fd5b6003811061183b5761183a6117fb565b5b50565b600081905061184c8261182a565b919050565b600061185c8261183e565b9050919050565b61186c81611851565b82525050565b60e082016000820151611888600085018261178a565b50602082015161189b60208501826117cb565b5060408201516118ae604085018261178a565b5060608201516118c160608501826117ec565b5060808201516118d460808501826117ec565b5060a08201516118e760a085018261178a565b5060c08201516118fa60c0850182611863565b50505050565b600061190c8383611872565b60e08301905092915050565b6000602082019050919050565b600061193082611754565b61193a818561175f565b935061194583611770565b8060005b8381101561197657815161195d8882611900565b975061196883611918565b925050600181019050611949565b5085935050505092915050565b6000602082019050818103600083015261199d8184611925565b905092915050565b600080fd5b6119b3816117b9565b81146119be57600080fd5b50565b6000813590506119d0816119aa565b92915050565b6119df81611780565b81146119ea57600080fd5b50565b6000813590506119fc816119d6565b92915050565b600080600060608486031215611a1b57611a1a6119a5565b5b6000611a29868287016119c1565b9350506020611a3a868287016119ed565b9250506040611a4b868287016119ed565b9150509250925092565b611a5e816117da565b82525050565b6000602082019050611a796000830184611a55565b92915050565b611a8881611780565b82525050565b6000602082019050611aa36000830184611a7f565b92915050565b600060208284031215611abf57611abe6119a5565b5b6000611acd848285016119ed565b91505092915050565b60008060408385031215611aed57611aec6119a5565b5b6000611afb858286016119c1565b9250506020611b0c858286016119ed565b9150509250929050565b600082825260208201905092915050565b7f5265656e7472616e637947756172643a207265656e7472616e742063616c6c00600082015250565b6000611b5d601f83611b16565b9150611b6882611b27565b602082019050919050565b60006020820190508181036000830152611b8c81611b50565b9050919050565b7f5072696365206d757374206265206174206c6561737420312077656900000000600082015250565b6000611bc9601c83611b16565b9150611bd482611b93565b602082019050919050565b60006020820190508181036000830152611bf881611bbc565b9050919050565b7f466565206d75737420626520657175616c20746f206c697374696e6720666565600082015250565b6000611c35602083611b16565b9150611c4082611bff565b602082019050919050565b60006020820190508181036000830152611c6481611c28565b9050919050565b600081519050611c7a816119aa565b92915050565b600060208284031215611c9657611c956119a5565b5b6000611ca484828501611c6b565b91505092915050565b7f4e4654206d75737420626520617070726f76656420746f206d61726b65740000600082015250565b6000611ce3601e83611b16565b9150611cee82611cad565b602082019050919050565b60006020820190508181036000830152611d1281611cd6565b9050919050565b611d22816117b9565b82525050565b611d3181611851565b82525050565b6000608082019050611d4c6000830187611d19565b611d596020830186611d19565b611d666040830185611a7f565b611d736060830184611d28565b95945050505050565b7f6964206d757374203c3d206974656d20636f756e740000000000000000000000600082015250565b6000611db2601583611b16565b9150611dbd82611d7c565b602082019050919050565b60006020820190508181036000830152611de181611da5565b9050919050565b7f6974656d206d757374206265206f6e206d61726b657400000000000000000000600082015250565b6000611e1e601683611b16565b9150611e2982611de8565b602082019050919050565b60006020820190508181036000830152611e4d81611e11565b9050919050565b7f6d75737420626520746865206f776e6572000000000000000000000000000000600082015250565b6000611e8a601183611b16565b9150611e9582611e54565b602082019050919050565b60006020820190508181036000830152611eb981611e7d565b9050919050565b6000819050919050565b6000611ee5611ee0611edb84611799565b611ec0565b611799565b9050919050565b6000611ef782611eca565b9050919050565b6000611f0982611eec565b9050919050565b611f1981611efe565b82525050565b6000819050919050565b6000611f44611f3f611f3a84611f1f565b611ec0565b611780565b9050919050565b611f5481611f29565b82525050565b6000608082019050611f6f6000830187611f10565b611f7c6020830186611d19565b611f896040830185611f4b565b611f966060830184611d28565b95945050505050565b7f506c65617365207375626d6974207468652061736b696e672070726963650000600082015250565b6000611fd5601e83611b16565b9150611fe082611f9f565b602082019050919050565b6000602082019050818103600083015261200481611fc8565b9050919050565b60006060820190506120206000830186611f10565b61202d6020830185611d19565b61203a6040830184611a7f565b949350505050565b60006080820190506120576000830187611f10565b6120646020830186611d19565b6120716040830185611a7f565b61207e6060830184611d28565b95945050505050565b7f4e487b7100000000000000000000000000000000000000000000000000000000600052601160045260246000fd5b60006120c182611780565b91507fffffffffffffffffffffffffffffffffffffffffffffffffffffffffffffffff8214156120f4576120f3612087565b5b600182019050919050565b7f4e487b7100000000000000000000000000000000000000000000000000000000600052604160045260246000fd5b7f4e487b7100000000000000000000000000000000000000000000000000000000600052603260045260246000fdfea2646970667358221220f19519f11bbe86d97c71a09a3323c7c990511f8f1287beaa1b9d722f8a0e3b7364736f6c634300080c0033",
  "linkReferences": {},
  "deployedLinkReferences": {}
}